:020000040800F2
:1000000000000320AD9E00082D9B00083B9B0008CC
:10001000419B0008479B00084D9B00080000000022
:10002000000000000000000000000000539B0008DA
:10003000619B0008000000006F9B0008FD9E000807
:10004000FD9E0008FD9E0008FD9E0008FD9E000824
:10005000FD9E0008FD9E0008FD9E0008FD9E000814
:10006000FD9E0008FD9E0008FD9E0008FD9E000804
:10007000FD9E0008FD9E0008FD9E0008FD9E0008F4
:10008000FD9E0008FD9E0008FD9E0008FD9E0008E4
:10009000FD9E0008FD9E0008FD9E0008FD9E0008D4
:1000A000FD9E00087D9B0008FD9E0008FD9E000847
:1000B000FD9E0008FD9E0008FD9E0008FD9E0008B4
:1000C000FD9E0008FD9E0008FD9E0008FD9E0008A4
:1000D000FD9E0008FD9E0008FD9E0008FD9E000894
:1000E000FD9E0008FD9E0008FD9E0008FD9E000884
:1000F000FD9E0008FD9E0008FD9E0008FD9E000874
:10010000FD9E0008FD9E0008FD9E0008FD9E000863
:10011000FD9E0008FD9E0008919B0008FD9E0008C2
:10012000FD9E0008FD9E0008FD9E0008FD9E000843
:10013000FD9E0008FD9E0008FD9E0008FD9E000833
:10014000FD9E0008FD9E0008FD9E0008FD9E000823
:10015000FD9E0008FD9E0008FD9E0008FD9E000813
:10016000FD9E0008FD9E0008FD9E0008FD9E000803
:10017000FD9E0008A59B0008FD9E000800000000F1
:10018000FD9E0008FD9E0008FD9E0008FD9E0008E3
:10019000FD9E0008FD9E0008FD9E0008FD9E0008D3
:0C01A000B99B0008FD9E0008CD9B0008E4
:1001AC0010B5054C237833B9044B13B10448AFF3A5
:1001BC0000800123237010BD80000020000000008F
:1001CC00589F000808B5034B1BB103490348AFF314
:1001DC00008008BD0000000084000020589F00082B
:1001EC0053B94AB9002908BF00281CBF4FF0FF3192
:1001FC004FF0FF3000F07AB9ADF1080C6DE904CE88
:10020C0000F006F8DDF804E0DDE9022304B07047E5
:10021C002DE9F0478C460D460446089E002B51D123
:10022C008A4217466DD9B2FA82FEBEF1000F0BD08E
:10023C00CEF1200C01FA0EF520FA0CFC02FA0EF7A6
:10024C004CEA050C00FA0EF44FEA174A250CBCFBDD
:10025C00FAF81FFA87F90AFB18CC45EA0C4508FB9B
:10026C0009F3AB420AD9ED1908F1FF3280F0238172
:10027C00AB4240F22081A8F102083D44ED1AA4B231
:10028C00B5FBFAF00AFB105544EA054400FB09F9EA
:10029C00A14509D9E41900F1FF3380F00A81A14589
:1002AC0040F2078102383C44A4EB090440EA0840C0
:1002BC000021002E61D024FA0EF400233460736008
:1002CC00BDE8F0878B4207D9002E54D0002186E878
:1002DC0021000846BDE8F087B3FA83F1002940F00D
:1002EC008E80AB4202D3824200F2FA80841A65EB14
:1002FC0003050120AC46002E3FD086E81010BDE867
:10030C00F08712B90127B7FBF2F7B7FA87FEBEF1F7
:10031C00000F34D1EB1B3A0C1FFA87FC0121B3FB05
:10032C00F2F8250C02FB183345EA03450CFB08F3E5
:10033C00AB4207D9ED1908F1FF3002D2AB4200F203
:10034C00D1808046ED1AA3B2B5FBF2F002FB10553A
:10035C0043EA05440CFB00FCA44507D9E41900F161
:10036C00FF3302D2A44500F2B8801846A4EB0C046B
:10037C0040EA08409DE731463046BDE8F087CEF1B3
:10038C00200405FA0EF307FA0EF720FA04F83A0CDB
:10039C0025FA04F448EA0308B4FBF2F14FEA1845D5
:1003AC0002FB11441FFA87FC45EA044501FB0CF3E0
:1003BC00AB4200FA0EF409D9ED1901F1FF3080F0CF
:1003CC008A80AB4240F2878002393D44EB1A1FFA17
:1003DC0088F5B3FBF2F002FB103345EA034500FB52
:1003EC000CF3AB4207D9ED1900F1FF386FD2AB42D9
:1003FC006DD902383D44EB1A40EA01418FE7C1F157
:10040C00200722FA07F88B4005FA01F448EA0303A7
:10041C0020FA07FE4FEA134CFD404EEA040EB5FBE2
:10042C00FCF94FEA1E440CFB19551FFA83F844EAF9
:10043C00054509FB08F4AC4202FA01F200FA01FA94
:10044C0008D9ED1809F1FF3043D2AC4241D9A9F1DA
:10045C0002091D442D1B1FFA8EFEB5FBFCF00CFB94
:10046C0010554EEA054400FB08F8A04507D9E418DE
:10047C0000F1FF3529D2A04527D902381C4440EAA7
:10048C000940A4EB0804A0FB02894C45C6464D4626
:10049C0015D312D056B1BAEB0E0364EB050404FA73
:1004AC0007F7CB401F43CC40376074600021BDE898
:1004BC00F0871846F8E69046E0E6C245EAD2B8EB7B
:1004CC00020E69EB03050138E4E72846D7E74046FE
:1004DC0091E78146BEE7014678E702383C4445E7A0
:1004EC00084608E7A8F102083D442BE7704700BF17
:1004FC0080B500AF00F04AFECA2000F05DF9C320C1
:10050C0000F067F9082000F064F9502000F061F960
:10051C00CF2000F051F9002000F05BF9C12000F071
:10052C0058F9302000F055F9ED2000F045F9642021
:10053C0000F04FF9032000F04CF9122000F049F9BB
:10054C00812000F046F9E82000F036F9852000F013
:10055C0040F9002000F03DF9782000F03AF9CB206A
:10056C0000F02AF9392000F034F92C2000F031F990
:10057C00002000F02EF9342000F02BF9022000F0BE
:10058C0028F9F72000F018F9202000F022F9EA20D1
:10059C0000F012F9002000F01CF9002000F019F90D
:1005AC00B12000F009F9002000F013F91B2000F035
:1005BC0010F9B62000F000F90A2000F00AF9A22088
:1005CC0000F007F9C02000F0F7F8102000F001F956
:1005DC00C12000F0F1F8102000F0FBF8C52000F06D
:1005EC00EBF8452000F0F5F8152000F0F2F8C720E4
:1005FC0000F0E2F8902000F0ECF8362000F0DCF887
:10060C00C82000F0E6F8F22000F0D6F8002000F048
:10061C00E0F8B02000F0D0F8C22000F0DAF8B620F4
:10062C0000F0CAF80A2000F0D4F8A72000F0D1F8A6
:10063C00272000F0CEF8042000F0CBF82A2000F0A0
:10064C00BBF8002000F0C5F8002000F0C2F8002034
:10065C0000F0BFF8EF2000F0BCF82B2000F0ACF855
:10066C00002000F0B6F8002000F0B3F8012000F0F4
:10067C00B0F83F2000F0ADF8F62000F09DF8012016
:10068C0000F0A7F8002000F0A4F8062000F0A1F874
:10069C002C2000F091F8C82000F066FE262000F017
:1006AC008BF8012000F095F8E02000F085F80F2081
:1006BC0000F08FF8292000F08CF8242000F089F845
:1006CC000C2000F086F80E2000F083F8092000F0D2
:1006DC0080F84E2000F07DF8782000F07AF83C206D
:1006EC0000F077F8092000F074F8132000F071F88E
:1006FC00052000F06EF8172000F06BF8112000F0C8
:10070C0068F8002000F065F8E12000F055F80020B2
:10071C0000F05FF8162000F05CF81B2000F059F890
:10072C00042000F056F8112000F053F8072000F0D8
:10073C0050F8312000F04DF8332000F04AF84220F8
:10074C0000F047F8052000F044F80C2000F041F8C8
:10075C000A2000F03EF8282000F03BF82F2000F093
:10076C0038F80F2000F035F8112000F025F8C820DB
:10077C0000F0FAFD292000F01FF82C2000F01CF8E6
:10078C0000BF80BD80B500AF00F000FD0321D32079
:10079C0000F02CF803469BB2184680BD80B500AF24
:1007AC00292000F009F800BF80BD80B500AF2820DB
:1007BC0000F002F800BF80BD80B582B000AF0346E8
:1007CC00FB71FB79184600F07BFD00BF0837BD4676
:1007DC0080BD80B582B000AF0346FB80FB88184615
:1007EC0000F04CFD00BF0837BD4680BD80B582B01F
:1007FC0000AF03460A46FB8013467B717A79FB886F
:10080C001146184600F07EFD034618460837BD46D3
:10081C0080BD80B400AFF0231846BD465DF8047B64
:10082C00704780B400AF4FF4A0731846BD465DF816
:10083C00047B704780B584B000AF0346FB80FB8817
:10084C00184600F059FA0346FB73FB7BFF2B12D1C1
:10085C00002000F051FA0346BB73BB7B012B0AD876
:10086C00BB7BFA88D1B2064AD15400F088FDFB88D4
:10087C00184600F007F800BF1037BD4680BD00BF1A
:10088C009C00002080B582B000AF0346FB80FB8843
:10089C00DBB202220321184600F07DFD0A2000F095
:1008AC00B7FDFB88DBB200220321184600F073FD74
:1008BC00022000F0ADFD00BF0837BD4680BD90B5ED
:1008CC0083B000AF0346FB8000F059FDFB88DBB220
:1008DC000021184600F072FD03461B021CB2FB8877
:1008EC00DBB20121184600F069FD03461BB223431D
:1008FC001BB29BB218460C37BD4690BD80B584B078
:10090C0000AF0346FB800023FB73FB88DBB209219D
:10091C00184600F053FD0346FB73FB7B43F00103C9
:10092C00FB73FB88DBB2FA7B0921184600F033FD20
:10093C0000BF1037BD4680BD80B584B000AF034604
:10094C00FB800023FB73FB88DBB20921184600F007
:10095C0035FD0346FB73FB7B23F00103FB73FB8824
:10096C00DBB2FA7B0921184600F015FD00BF1037E9
:10097C00BD4680BD80B584B000AF03460A46FB80FF
:10098C0013467B710023FB73FB88DBB20A211846EC
:10099C0000F014FD0346FB73FA7B7B791343FB7366
:1009AC00FB88DBB2FA7B0A21184600F0F4FC00BF8E
:1009BC001037BD4680BD80B584B000AF03460A46F3
:1009CC00FB8013467B710023FB73FB88DBB20A218F
:1009DC00184600F0F3FC0346FB7397F90530DB4334
:1009EC005AB297F90F3013405BB2FB73FB88DBB242
:1009FC00FA7B0A21184600F0CEFC00BF1037BD462A
:100A0C0080BD80B582B000AF03460A46FB8013461A
:100A1C007B71FB88DBB20B21184600F0CFFC034640
:100A2C001A467B791340DBB218460837BD4680BDA9
:100A3C0080B582B000AF03460A46FB8013467B713B
:100A4C00FB88DBB27A790B21184600F0A4FC00BFBE
:100A5C000837BD4680BD80B584B000AF0346396011
:100A6C00FB800023FB73FB88DBB21721184600F0D8
:100A7C00A5FC0346FB733B685BB2DB435AB297F9A8
:100A8C000F3013405BB2FB73FB88DBB2FA7B172190
:100A9C00184600F080FC00BF1037BD4680BD80B505
:100AAC0084B000AF0346FB80FB88DBB20421184600
:100ABC0000F084FC0346FB73FB7B23F00403FB7305
:100ACC00FB88DBB2FA7B0421184600F064FCFB883F
:100ADC00F0211846FFF7BFFFFB7B23F00303FB73EA
:100AEC00FB88DBB2FA7B0421184600F054FCFB882F
:100AFC00DBB249222021184600F04DFC022000F008
:100B0C0087FCFB88DBB201222121184600F043FC54
:100B1C00FB88DBB29A224121184600F03CFCFB8892
:100B2C00DBB201224A21184600F035FCFB88DBB20F
:100B3C0001224B21184600F02EFCFB88DBB2002270
:100B4C004B21184600F027FCFB88DBB20122562112
:100B5C00184600F020FCFB88DBB201225821184615
:100B6C0000F019FCFB88DBB201224021184600F092
:100B7C0012FCFB88DBB2FF220B21184600F00BFCA9
:100B8C00022000F045FC00BF1037BD4680BD80B58B
:100B9C0084B000AF0346FB800023FB73FB88DBB201
:100BAC004021184600F00AFC034603F08003802B1A
:100BBC000CBF01230023DBB2BB73BB7B002B0BD020
:100BCC00FB88DBB24C21184600F0F8FB0346002BE7
:100BDC0010D00123FB730DE0FB88DBB201224B210B
:100BEC00184600F0D8FBFB88DBB200224B211846DC
:100BFC0000F0D1FBFB7B18461037BD4680BD80B59D
:100C0C0086B000AF0346B9607A60FB81FB89D8B22D
:100C1C0007F110020423D72100F0E3FB3B7C1A06FA
:100C2C007B7C1B041A43BB7C1B021343FA7C1343CF
:100C3C007B617B691B0D9AB2BB681A807B691B0AAE
:100C4C009BB2C3F30B039AB27B681A80FB89DBB2AD
:100C5C0001224B21184600F09EFBFB89DBB20022DF
:100C6C004B21184600F097FB00BF1837BD4680BDDE
:100C7C0080B582B000AF0346FB8000F086FBFB889A
:100C8C001F211846FFF776FEFB881846FFF736FE45
:100C9C0000BF0837BD4680BD80B582B000AF0346AB
:100CAC00FB80FB881846FFF747FEFB881F21184680
:100CBC00FFF781FE00BF0837BD4680BD80B582B00E
:100CCC0000AF0346FB80FB881F211846FFF799FEF7
:100CDC00034618460837BD4680BD80B582B000AFCC
:100CEC000346FB80FB881F211846FFF7A1FE00BFBF
:100CFC000837BD4680BD000080B485B000AF034608
:100D0C00FB800023FB730023FB730BE0FB7B0A4A85
:100D1C00D35C9BB2FA889A4201D1FB7B06E0FB7B49
:100D2C000133FB73FB7B012BF0D9FF2318461437DF
:100D3C00BD465DF8047B70479C00002080B58AB0EE
:100D4C0000AF78607B681B68334A93425FD1002305
:100D5C003B61324A314B1B6B43F0040313632F4B43
:100D6C001B6B03F004033B613B690023FB602B4AC4
:100D7C002A4B1B6B43F001031363284B1B6B03F0D3
:100D8C000103FB60FB684FF480737B611223BB6132
:100D9C000023FB6102233B6204237B6207F11403F3
:100DAC0019461F4802F022FA4FF400737B6107F1D9
:100DBC00140319461B4802F019FA0023BB60174AAA
:100DCC00164B1B6C43F400031364144B1B6C03F4A1
:100DDC000003BB60BB68114A104B1B6A43F4000351
:100DEC0013620E4A0D4B1B6A23F40003136200229C
:100DFC000F21482001F05AFC482001F073FC00221E
:100E0C000F21492001F052FC492001F06BFC00BF7E
:100E1C002837BD4680BD00BF005C00400038024052
:100E2C00000002400008024080B500AF144804F0F6
:100E3C00C9FA0346002B21D1114B124A1A60104BF0
:100E4C00114A5A600E4B00229A600D4B0022DA6058
:100E5C000B4B4FF480421A61094B00225A61084B2C
:100E6C0000229A61064B0022DA61054B00221A62BD
:100E7C000348FFF763FF024803F02CFE00BF80BD60
:100E8C0060020020005C0040A086010080B586B0A6
:100E9C0000AF00233B60134A124B1B6B43F0010362
:100EAC001363104B1B6B03F001033B603B684FF467
:100EBC0000437B600123FB6000233B610A4BBB605A
:100ECC003B1D1946094802F091F900220F212820F8
:100EDC0001F0ECFB282001F005FC00BF1837BD46E3
:100EEC0080BD00BF0038024000002110000002400D
:100EFC0080B588B004AF0346FB710B46BB7113463B
:100F0C007B710023FB73FB7999B2BB799AB20B4BC3
:100F1C001B680293012301937B1D00930123084856
:100F2C0003F030FF0346FB73FB7B002B01D000F07A
:100F3C0063F800BF1037BD4680BD00BF60000020C5
:100F4C006002002080B588B004AF03460A46FB71EE
:100F5C001346BB710023FB730023BB73FB7999B25F
:100F6C00BB799AB20B4B1B6802930123019307F1D7
:100F7C000E0300930123084803F0FEFF0346FB73A6
:100F8C00FB7B002B01D000F037F8BB7B18461037E9
:100F9C00BD4680BD600000206002002080B588B096
:100FAC0004AF3A601A460346FB710B46BB711346FD
:100FBC00BB800023FB73FB7999B2BB799AB20C4BC3
:100FCC001B680293BB8801933B680093012309487B
:100FDC0003F0D2FF0346FB73FB7B002B01D10023F4
:100FEC0002E000F009F8012318461037BD4680BD19
:100FFC00600000206002002080B500AF034803F0C1
:10100C0091FEFFF711FF00BF80BD00BF6002002002
:10101C0080B500AF194806F003FC0346002B2BD11A
:10102C00164B174A1A60154B1822DA61134B002223
:10103C009A60124B00225A61104B00221A610F4B1E
:10104C0000229A620D4B0722DA620C4B0022DA6006
:10105C000A4B00221A62094B4FF400729A61074B3B
:10106C0000225A62054B4FF482725A60034800F01A
:10107C0053F8024805F071FF00BF80BDA0000020AE
:10108C000050014080B584B000AF0346FB710023D3
:10109C00FB73FB799AB2094B1B6807F108010848EE
:1010AC0006F018F90346FB73FB7B002B01D000F014
:1010BC0027F8BB6818461037BD4680BD6400002079
:1010CC00A000002080B584B000AF0346FB80002355
:1010DC00FB73094B1B68B91D0122084805F0C8FFBA
:1010EC000346FB73FB7B002B01D000F009F800BF1B
:1010FC001037BD4680BD00BF64000020A00000205A
:10110C0080B500AF034805F08BFFFFF781FF00BFF0
:10111C0080BD00BFA000002080B58AB000AF786011
:10112C0000233B61174A174B5B6C43F480135364E9
:10113C00144B5B6C03F480133B613B690023FB6035
:10114C00104A104B1B6B43F0200313630D4B1B6BAE
:10115C0003F02003FB60FB684FF460737B61022398
:10116C00BB610223FB6101233B6205237B6207F118
:10117C0014031946044802F039F800BF2837BD465D
:10118C0080BD00BF003802400014024080B588B01A
:10119C0000AF364B1B78002B64D1344B01221A70F4
:1011AC000023BB60324A324B1B6B43F008031363C2
:1011BC002F4B1B6B03F00803BB60BB684FF4005351
:1011CC00FB6001233B6100237B610223BB6107F1C0
:1011DC000C031946274802F009F800237B60244AC7
:1011EC00234B1B6B43F008031363214B1B6B03F066
:1011FC0008037B607B684FF48053FB6001233B61E9
:10120C0000237B610223BB6107F10C0319461948CB
:10121C0001F0ECFF00233B60154A154B1B6B43F0B0
:10122C0004031363124B1B6B03F004033B603B681A
:10123C000423FB6001233B6100237B610223BB6120
:10124C0007F10C0319460C4801F0D0FF00220421D1
:10125C00094802F081FA01220421074802F07CFAC5
:10126C00FFF7D6FE00BF2037BD4680BDF80000203A
:10127C0000380240000C02400008024080B582B0E9
:10128C0000AF0346FB8001224FF400510A4802F0E4
:10129C0063FA00220421094802F05EFAFB88184622
:1012AC00FFF710FF01220421044802F055FA00BF99
:1012BC000837BD4680BD00BF000C0240000802404C
:1012CC0080B582B000AF0346FB7100224FF4005191
:1012DC000A4802F041FA00220421094802F03CFAC3
:1012EC00FB799BB21846FFF7EDFE0122042104485E
:1012FC0002F032FA00BF0837BD4680BD000C024038
:10130C000008024080B584B000AF03460A46FB805B
:10131C0013467B710023FB6000220421104802F06D
:10132C001BFA00224FF400510E4802F015FAFB880C
:10133C001846FFF7C7FE7B791846FFF7A3FEF86047
:10134C0001224FF40051074802F006FA0122042151
:10135C00034802F001FAFB6818461037BD4680BD01
:10136C0000080240000C024080B582B000AF7860EB
:10137C00786801F0C3F800BF0837BD4680BD80B562
:10138C0000AFFFF751FD00BF80BD80B500AFFFF788
:10139C007DFD00BF80BD80B582B000AF0346FB7100
:1013AC000B46BB7113467B717A79B979FB79184678
:1013BC00FFF79EFD00BF0837BD4680BD80B582B0EB
:1013CC0000AF03460A46FB711346BB71BA79FB7931
:1013DC0011461846FFF7B6FD034618460837BD46BA
:1013EC0080BD80B582B000AF3A601A460346FB71EF
:1013FC000B46BB711346BB80BB88B979F8793A6848
:10140C00FFF7CCFD03469BB218460837BD4680BD9E
:10141C0080B582B000AF7860786801F06FF800BFDB
:10142C000837BD4680BD000080B500AF2D4B2E4A5D
:10143C001A602C4B09225A612A4B01229A61294BC2
:10144C001D22DA61274B03221A62264B40F20D1241
:10145C005A62244B40F243129A62224B40F217120A
:10146C00DA62204B40F247121A631E4B002283F8BB
:10147C0036201C4B002283F834201A4B002283F8B0
:10148C0035201A4B08221A60184BC0221A61174BD0
:10149C0004229A61154B4FF400325A62134805F03E
:1014AC0039FB104B00225A600E4B00229A600D4BF8
:1014BC000022DA600B4B00221A6100F039FB09485C
:1014CC0004F03EFB0A4B0B4A1A60094B1B681B6865
:1014DC00984700F01BFD084800F0CEF80023184692
:1014EC0080BD00BFB4020020006801403C01002018
:1014FC005C030020000000206800002080B500AFD5
:10150C00034B1B689B6A98470346184680BD00BF77
:10151C005C03002080B500AF034B1B68DB6A984767
:10152C000346184680BD00BF5C03002080B590B018
:10153C0000AF03463960FB800023FB60FFF7DEFF42
:10154C0003463B6100237B61FFF7E4FF0346BB616D
:10155C000023FB613B683B63FF233B6200237B6200
:10156C00002387F83C30002387F83D30002387F8B0
:10157C003E304FF4C063BB620723FB62FFF7BEFF34
:10158C0003467B63FFF7C6FF0346BB63FA8807F18C
:10159C000C031946144804F065FCFA8813491346E9
:1015AC005B0013449B000B4404334FF0FF321A6072
:1015BC00FA880E4913465B0013449B000B44083316
:1015CC000B4A1A60FA88094913465B0013449B00C6
:1015DC000B444FF07F421A60034804F081FC00BFBB
:1015EC004037BD4680BD00BFB40200207001002012
:1015FC006800002080B483B000AF7860044A7B6838
:10160C00136000BF0C37BD465DF8047B704700BF0C
:10161C006C01002080B483B000AF7860074B1A686F
:10162C00074913465B0013449B000B447A681A600D
:10163C0000BF0C37BD465DF8047B70476C01002081
:10164C007001002080B483B000AF7860084B1A683A
:10165C00084913465B0013449B000B4404337A681F
:10166C001A6000BF0C37BD465DF8047B704700BFA5
:10167C006C0100207001002080B483B000AF786052
:10168C00084B1A68084913465B0013449B000B4433
:10169C0008337A681A6000BF0C37BD465DF8047BCE
:1016AC00704700BF6C01002070010020F0B585B0C0
:1016BC0002AF78600F4B1C680E4B1B680E4A34212E
:1016CC0001FB03F313445C331B681D46FFF716FF45
:1016DC000646FFF71FFF02467B6801930023009329
:1016EC00134632462946204600F0D8FB00BF0C3783
:1016FC00BD46F0BD6C010020B402002090B583B053
:10170C0000AF0346FB800B46BB801346FB701B4BA4
:10171C001A681B4913465B0013449B000B440833A7
:10172C001B681968FB78A3F12000144B1A68144C41
:10173C0013465B0013449B00234408331B68DB886F
:10174C0003FB00F00D4B1A680D4C13465B00134461
:10175C009B00234408331B689B880733002B00DA5B
:10176C000733DB1003FB00F3CA18B988FB88184653
:10177C0000F0DAFA00BF0C37BD4690BD6C010020BA
:10178C0070010020B0B588B000AFBA601A460346AD
:10179C00FB810B46BB811346FB710123FB830023AA
:1017AC00BB830023BB6100233B61BB687B6102E010
:1017BC00BB690133BB617B695A1C7A611B78002BB6
:1017CC00F6D1FFF79BFE4A4B1A684A4913465B0059
:1017DC0013449B000B4408331B689B88B0FBF3F34A
:1017EC003B61FB79022B1CD0032B17D0012B2ED184
:1017FC003A69BB69D11A3E4B1A683E4813465B00E6
:10180C0013449B00034408331B689B8803FB01F3C0
:10181C005B089AB2FB891344FB831BE0FB89FB83B7
:10182C0018E03A69BB69D31A99B2314B1A6831483E
:10183C0013465B0013449B00034408331B689B88CE
:10184C0011FB03F39AB2FB891344FB8302E0FB897F
:10185C00FB8300BF1AE0BB681A78B989FB8B18466A
:10186C00FFF74CFF224B1A68224913465B001344C6
:10187C009B000B4408331B689A88FB8B1344FB8337
:10188C00BB680133BB60BB8B0133BB83BB681B786C
:10189C00002B14BF01230023DCB2FFF72FFE0546FB
:1018AC00B98B134B1A68134813465B0013449B0007
:1018BC00034408331B689B8803FB01F3EB1A99B2B2
:1018CC000B4B1A680B4813465B0013449B000344F4
:1018DC0008331B689B8899422CBF01230023DBB281
:1018EC002340DBB2002BB6D100BF2037BD46B0BDC4
:1018FC006C01002070010020B0B586B002AF034629
:10190C00FB800B46BB8013467B800023FB60164B91
:10191C001B68164A342101FB03F313445C331C6827
:10192C00FFF7ECFD0246BB8803FB02F2FB88134475
:10193C009B002344FB600C4B1868FC687D880A4BA9
:10194C001A680B4913465B0013449B000B441B683D
:10195C0001930023009301232A46214600F09EFAAE
:10196C0000BF1037BD46B0BD6C010020B402002092
:10197C0070010020F0B587B002AF0346FB800B4628
:10198C00BB8013467B800023FB60184B1B68184AF6
:10199C00342101FB03F313445C331C68FFF7AEFDE9
:1019AC000246BB8803FB02F2FB8813449B002344D2
:1019BC00FB600E4B1C68FD687E88FFF79FFD03469D
:1019CC00591E0A4B1A680B4813465B0013449B00C4
:1019DC0003441B680193009133460122294620469B
:1019EC0000F05CFA00BF1437BD46F0BD6C0100205E
:1019FC00B40200207001002090B583B000AF044603
:101A0C00084611461A462346FB800346BB800B460C
:101A1C007B8013463B807A88B988FB881846FFF791
:101A2C006BFFBA883B88134499B27A88FB881846B6
:101A3C00FFF762FF3A88B988FB881846FFF79AFFD0
:101A4C00FA887B8813449BB23A88B9881846FFF70A
:101A5C0091FF00BF0C37BD4690BD00002DE9F04151
:101A6C0086B002AF0446084611461A462346FB8050
:101A7C000346BB800B467B8013463B800023FB60F8
:101A8C00204B1A68204913465B0013449B000B44FF
:101A9C001B681846FFF7BEFD1A4B1B681B4A342106
:101AAC0001FB03F313445C331C68FFF727FD02466C
:101ABC00BB8803FB02F2FB8813449B002344FB60AE
:101ACC00104B1C68FD687E88B7F80080FFF716FD88
:101ADC0002467B88D11A0B4B1A680B4813465B00E5
:101AEC0013449B0003441B68019300914346324608
:101AFC002946204600F0D2F900BF1037BD46BDE89C
:101B0C00F08100BF6C01002070010020B4020020A5
:101B1C0080B500AF054B1B689B68002B03D0034BB3
:101B2C001B689B68984700BF80BD00BF5C0300200A
:101B3C0080B58EB000AF00233B62614A604B5B6C9A
:101B4C0043F0806353645E4B5B6C03F080633B62D9
:101B5C003B6A0023FB615A4A594B1B6B43F400034D
:101B6C001363574B1B6B03F40003FB61FB690023EE
:101B7C00BB61534A524B1B6B43F001031363504B35
:101B8C001B6B03F00103BB61BB6900237B614C4AF7
:101B9C004B4B1B6B43F002031363494B1B6B03F062
:101BAC0002037B617B6900233B61454A444B1B6B01
:101BBC0043F004031363424B1B6B03F004033B61C0
:101BCC003B690023FB603E4A3D4B1B6B43F0080313
:101BDC0013633B4B1B6B03F00803FB60FB68002398
:101BEC00BB60374A364B1B6B43F020031363344BFB
:101BFC001B6B03F02003BB60BB6800237B60304A87
:101C0C002F4B1B6B43F0400313632D4B1B6B03F0EB
:101C1C0040037B607B6841F658037B620223BB6206
:101C2C000023FB6202233B630E237B6307F1240337
:101C3C001946244801F0DAFA4FF470637B6207F11D
:101C4C0024031946204801F0D1FA4FF498637B62C3
:101C5C0007F1240319461D4801F0C8FA48237B629A
:101C6C0007F1240319461A4801F0C0FA4FF48063B7
:101C7C007B6207F124031946164801F0B7FA4FF4BA
:101C8C000C637B6207F124031946134801F0AEFA8A
:101C9C0003237B6209237B6307F1240319460A485B
:101CAC0001F0A4FA4FF4A0537B6207F12403194608
:101CBC00094801F09BFA00BF3837BD4680BD00BF14
:101CCC0000380240000002400004024000080240BC
:101CDC00000C02400014024000180240B0B582B063
:101CEC0000AF03463A60FB800B46BB800C4B1B6875
:101CFC000C4A342101FB03F313445C331C68BD888C
:101D0C00FFF7FCFB034603FB05F2FB8813449B0027
:101D1C0023441A463B68136000BF0837BD46B0BD6C
:101D2C006C010020B402002080B588B000AF0346DF
:101D3C003A60FB800B46BB800023FB610023BB6138
:101D4C0000237B61534B1A68534913465B001344C1
:101D5C009B000B4408331B68DB887B824D4B1A6855
:101D6C004D4913465B0013449B000B4408331B681E
:101D7C009B883B823B8A0733002B00DA0733DB104E
:101D8C00DBB2DB00DAB23B8ADBB2D31AFB73002383
:101D9C00FB6176E03B8A0733002B00DA0733DB105C
:101DAC001A46FB6903FB02F33A681344BB603B8A97
:101DBC000733002B00DA0733DB10012B02D0022B88
:101DCC0004D00CE0BB681B787B6116E0BB681B7809
:101DDC001B02BA680132127813437B610DE0BB68B9
:101DEC001B781A04BB6801331B781B021343BA68B7
:101DFC000232127813437B6100BF0023BB6136E0D3
:101E0C003A8ABB69D21AFB7B1344013B012202FACA
:101E1C0003F31A467B691340002B12D0BB699AB2AC
:101E2C00FB88134498B21B4B1A681B4913465B0082
:101E3C0013449B000B441A68BB881946FFF74EFFEE
:101E4C0012E0BB699AB2FB88134498B2114B1A6822
:101E5C00114913465B0013449B000B4404331A686E
:101E6C00BB881946FFF73AFFBB690133BB613A8A5D
:101E7C00BB699A42C4D8BB880133BB80FB69013370
:101E8C00FB617A8AFB699A4284D800BF2037BD4631
:101E9C0080BD00BF6C0100207001002080B586B0B1
:101EAC0002AFF860B9607A603B60164B4FF4403279
:101EBC005A60144B00229A60124ABB69D360114BD2
:101ECC00114A1A600F4800F0F7FD0346002B15D19C
:101EDC00F9680C4801F05EF80346002B0ED1BA6885
:101EEC003B6800937B68F969064800F02EFE0346B8
:101EFC00002B03D10A21034800F052FE00BF10371B
:101F0C00BD4680BDFC00002000B0024080B500AF93
:101F1C00294B2A4A1A602A4B02221A60284B0722A4
:101F2C005A60274B04229A60254B0722DA60244B17
:101F3C0002221A61224B02225A61214B02229A611F
:101F4C001D4B01225A601C4B00229A601A4B042232
:101F5C00DA60194B10221A61174B40225A61164B4A
:101F6C004FF4C0729A61144B0022DA61124B4FF499
:101F7C0000621A62104B00225A620F4B4FF400524F
:101F8C009A6200210C4800F07FF80D490A4804F0D1
:101F9C0065FF0346002B03D00A4B01221A7002E0A6
:101FAC00084B00221A7040F26A5000F00DF8054BF5
:101FBC001B78184680BD00BF88010020400100A09E
:101FCC00BC0100207800002080B584B000AF7860A0
:101FDC000023FB602A4B01221A60294B08225A600D
:101FEC00274B01229A60264B0022DA604FF6FF72D3
:101FFC002349244804F066FF012000F07FFA204BAF
:10200C0002221A601E4B08225A601D4B01229A6054
:10201C001B4B0022DA604FF6FF721949194804F085
:10202C0051FF174B03221A60154B08225A60144BB0
:10203C0004229A60124B0022DA604FF6FF721049AC
:10204C00104804F03FFF4FF40C73FB600C4B042260
:10205C001A600B4B08225A60094B01229A60FB68EC
:10206C00074AD3604FF6FF720549064804F02AFF71
:10207C007968044804F051FF00BF1037BD4680BD9D
:10208C00D80100208801002080B590B000AF7860A6
:10209C0039607B68002B00F0EC800023BB62774A30
:1020AC00764B9B6B43F001039363744B9B6B03F078
:1020BC000103BB62BB6A00237B62704A6F4B1B6BD4
:1020CC0043F4800313636D4B1B6B03F480037B623F
:1020DC007B6A00233B62694A684B1B6B43F002032B
:1020EC001363664B1B6B03F002033B623B6A0023DA
:1020FC00FB61624A614B1B6B43F0040313635F4B40
:10210C001B6B03F00403FB61FB690023BB615B4A9F
:10211C005A4B1B6B43F008031363584B1B6B03F0B8
:10212C000803BB61BB6900237B61544A534B1B6B97
:10213C0043F010031363514B1B6B03F010037B61D3
:10214C007B6900233B614D4A4C4B1B6B43F02003D6
:10215C0013634A4B1B6B03F020033B613B69002369
:10216C00FB60464A454B1B6B43F040031363434BE8
:10217C001B6B03F04003FB60FB6802233B630223F1
:10218C00BB6300237B630C23FB636023FB6207F1BF
:10219C002C0319463A4801F029F80123FB6207F198
:1021AC002C031946374801F021F84CF20373FB62FB
:1021BC0007F12C031946344801F018F84FF68373D5
:1021CC00FB6207F12C031946304801F00FF84FF66B
:1021DC003F03FB6207F12C0319462D4801F006F86A
:1021EC0048F23313FB6207F12C031946294800F01F
:1021FC00FDFF294B00225A60274B80229A60264B08
:10220C004FF40072DA60244B4FF480621A61224B57
:10221C004FF480525A61204B4FF480429A611E4B0E
:10222C000022DA611C4B4FF400321A621A4B002266
:10223C005A62194B03229A62174B0022DA62164B30
:10224C0000221A63144B154A1A607B68124A1A63EF
:10225C00114A7B689363104800F020FB0E4800F095
:10226C006FFA00220F21382000F020FA382000F0FD
:10227C0039FA00BF4037BD4680BD00BF0038024070
:10228C000004024000080240000C02400010024012
:10229C000014024000180240E801002010640240C3
:1022AC0080B584B000AF03460A46FB801346BB8062
:1022BC000123FB73134AFB881380134ABB881380DA
:1022CC00124B5B688220984703461A4640F611036E
:1022DC009A4204D10E4B0D4A1A600023FB73FB7B10
:1022EC00002B09D10A4B1B681B6882209847084BAE
:1022FC001B68DB6882209847FB7B18461037BD466D
:10230C0080BD00BF4C0200204E020020380000208F
:10231C004802002080B586B000AF78604F4B1B6838
:10232C001B698220984703469AB27B681A807B68A7
:10233C001B88002B00F08D80484B1B685B6907F1F4
:10234C000C0207F10E0182209847BB89A3F5B473E8
:10235C009BB2BB81BB89424AA2FB0323DB08BB8235
:10236C00BB8A002B02D10023BB8208E03D4B1B88AB
:10237C00BA8A9A4203D93B4B1B88013BBB82BB8A6E
:10238C00BB81FB8940F6B832934206D8FB89C3F572
:10239C0071630E339BB2FB8105E0FB89C3F56D6362
:1023AC0008339BB2FB81FB892F4AA2FB0323DB087A
:1023BC00FB82FB8A002B02D10023FB8208E02B4B13
:1023CC001B88FA8A9A4203D9284B1B88013BFB8253
:1023DC00FB8AFB81FB891A46254B1B689A4206D95E
:1023EC00FA89234B1B689BB2D31A9BB205E0204B96
:1023FC001B689AB2FB89D31A9BB27B82BB891A46A3
:10240C001C4B1B689A4206D9BA891A4B1B689BB2A3
:10241C00D31A9BB205E0174B1B689AB2BB89D31A2F
:10242C009BB23B827A8A3B8A1344052B07DDFB89DE
:10243C001A460F4B1A60BB891A460E4B1A600C4B8E
:10244C001B689AB27B685A800A4B1B689AB27B68ED
:10245C009A8000BF1837BD4680BD00BF48020020DF
:10246C00A38B2EBA4E020020898888884C0200204B
:10247C00500200205402002080B500AF0E4A0E4BD3
:10248C001B6843F4007313600B4A0B4B1B6843F43B
:10249C0080631360084A084B1B6843F48073136015
:1024AC00032000F0F8F8002007F0E0FA07F0B6FA85
:1024BC000023184680BD00BF003C024080B400AF32
:1024CC00064B1B781A46064B1B681344044A1360D0
:1024DC0000BFBD465DF8047B704700BF790000204B
:1024EC006003002080B400AF034B1B681846BD4648
:1024FC005DF8047B704700BF6003002080B584B09A
:10250C0000AF7860FFF7EEFFB8607B68FB60FB689C
:10251C00B3F1FF3F05D0094B1B781A46FB681344F7
:10252C00FB6000BFFFF7DEFF0246BB68D21AFB68F8
:10253C009A42F7D300BF1037BD4680BD790000200A
:10254C0080B485B000AF78607B6803F00703FB6054
:10255C000C4BDB68BB60BA684FF6FF031340BB60E3
:10256C00FB681A02BB68134343F0BF6343F40033A8
:10257C00BB60044ABB68D36000BF1437BD465DF82E
:10258C00047B704700ED00E080B400AF044BDB68C7
:10259C001B0A03F007031846BD465DF8047B704721
:1025AC0000ED00E080B483B000AF0346FB7197F9F7
:1025BC000730002B0BDB094997F907305B09FA79D7
:1025CC0002F01F02012000FA02F241F8232000BFA2
:1025DC000C37BD465DF8047B704700BF00E100E09E
:1025EC0080B483B000AF03463960FB7197F90730B4
:1025FC00002B0ADB0D4997F907303A68D2B2120169
:10260C00D2B20B4483F800230AE00949FB7903F0AA
:10261C000F03043B3A68D2B21201D2B20B441A76C1
:10262C0000BF0C37BD465DF8047B704700E100E04D
:10263C0000ED00E080B489B000AFF860B9607A605A
:10264C00FB6803F00703FB61FB69C3F10703042B71
:10265C0028BF0423BB61FB690433062B02D9FB6939
:10266C00033B00E000237B610122BB6902FA03F308
:10267C005A1EBB681A407B699A4001217B6901FA9A
:10268C0003F3591E7B680B40134318462437BD4691
:10269C005DF8047B704780B582B000AF78607868D5
:1026AC00FFF74EFF00BF0837BD4680BD80B586B032
:1026BC0000AF0346B9607A60FB7300237B61FFF7C0
:1026CC0063FF78617A68B9687869FFF7B3FF0246EF
:1026DC0097F90F3011461846FFF782FF00BF1837E5
:1026EC00BD4680BD80B582B000AF0346FB7197F943
:1026FC0007301846FFF756FF00BF0837BD4680BDB0
:10270C0080B582B000AF78607B68002B01D10123CB
:10271C0011E07B685B79DBB2002B05D17B68002272
:10272C001A71786806F03AFA7B6802225A717B6853
:10273C0001225A71002318460837BD4680BD00009F
:10274C0080B586B000AF786000237B61FFF7CAFECE
:10275C0038617B68002B01D1012399E07B68002252
:10276C0083F834207B68022283F835207B681B6851
:10277C007A681268126822F001021A600FE0FFF703
:10278C00B1FE02463B69D31A052B08D97B6820227F
:10279C005A657B68032283F83520032378E07B6835
:1027AC001B681B6803F00103002BE8D17B681B68D6
:1027BC001B687B617A69384B13407B617B685A6874
:1027CC007B689B681A437B68DB681A437B681B69D0
:1027DC001A437B685B691A437B689B691A437B6865
:1027EC00DB691A437B681B6A13437A6913437B6169
:1027FC007B685B6A042B07D17B68DA6A7B681B6B8E
:10280C0013437A6913437B617B681B687A691A608E
:10281C007B681B685B697B617B6923F007037B61C9
:10282C007B685B6A7A6913437B617B685B6A042B08
:10283C0017D17B689B6A7A6913437B617B68DB6A7F
:10284C00002B0ED0786800F0BDF80346002B08D0A2
:10285C007B6840225A657B68012283F8352001236E
:10286C0016E07B681B687A695A61786800F074F826
:10287C000346FB607B68DB6D3F229A40FB689A60E5
:10288C007B6800225A657B68012283F8352000237F
:10289C0018461837BD4680BD3F8010F080B584B017
:1028AC0000AF78607B68002B01D1012350E07B687E
:1028BC0093F83530DBB2022B01D1022348E07B6860
:1028CC001B687A681268126822F001021A607B6831
:1028DC001B6800221A607B681B6800225A607B68A8
:1028EC001B6800229A607B681B680022DA607B6898
:1028FC001B6800221A617B681B6821225A61786868
:10290C0000F02AF80346FB607B680022DA637B68E0
:10291C0000221A647B6800225A647B6800229A6445
:10292C007B680022DA647B6800221A657B68DB6DA9
:10293C003F229A40FB689A607B6800225A657B684C
:10294C00002283F835207B68002283F83420002392
:10295C0018461037BD4680BD80B485B000AF786096
:10296C007B681B68DBB2103B144AA2FB03231B09D8
:10297C00FB60134AFB6813441B781A467B68DA65C4
:10298C00FB68032B09D97B681B6823F47F7323F046
:10299C0003031A1D7B689A6507E07B681B6823F4A8
:1029AC007F7323F003037A6893657B689B6D1846ED
:1029BC001437BD465DF8047B704700BFABAAAAAACA
:1029CC0040C6000880B485B000AF78600023FB736C
:1029DC007B689B6ABB607B689B69002B1FD1BB68C3
:1029EC00032B55D801A252F823F000BF092A000886
:1029FC001B2A0008092A00089D2A00087B68DB6A4C
:102A0C0003F08073002B45D00123FB7342E07B68FD
:102A1C00DB6AB3F1C07F3FD10123FB733CE07B68E1
:102A2C009B69B3F5005F21D1BB68032B36D801A29B
:102A3C0052F823F0512A0008572A0008512A00089E
:102A4C00692A00080123FB732FE07B68DB6A03F023
:102A5C008073002B24D00123FB7321E07B68DB6A9D
:102A6C00B3F1C07F1ED10123FB731BE0BB68022BAB
:102A7C0002D9032B03D018E00123FB7315E07B680C
:102A8C00DB6A03F08073002B0ED00123FB730BE089
:102A9C0000BF0AE000BF08E000BF06E000BF04E092
:102AAC0000BF02E000BF00E000BFFB7B18461437FC
:102ABC00BD465DF8047B704780B582B000AF78608E
:102ACC007B68002B01D101233BE07B6893F8393004
:102ADC00DBB2002B06D17B68002283F838207868A3
:102AEC0006F0B0F87B68022283F839207B681B68FB
:102AFC007A681268126822F440317A6852680A4384
:102B0C001A607B681B687A681268526B22F00701A6
:102B1C007A6892680A435A637B681A687B681B68F8
:102B2C001B6C23F47F5323F03F037968C9680B4374
:102B3C0013647B680022DA637B68012283F83920F6
:102B4C00002318460837BD4680BD80B586B002AF5D
:102B5C00F860B9607A603B60FB6893F83830012B01
:102B6C0001D1022318E0FB68012283F83820FB68AE
:102B7C00022283F83920BB6900933B687A68B968F4
:102B8C00F86800F097FAFB681B68FA68126812681C
:102B9C0042F001021A60002318461037BD4680BD72
:102BAC0080B586B000AF786039600023FB607B682D
:102BBC001B681B6803F00103002B56D0FFF792FC37
:102BCC0078614BE07B681B685B68FB60FB6803F01B
:102BDC002103002B23D0FB6803F02003002B05D02E
:102BEC007B68DB6B43F002027B68DA63FB6803F003
:102BFC000103002B05D07B68DB6B43F001027B6883
:102C0C00DA637B681B6821229A607B68042283F854
:102C1C0039207B68002283F838200123A5E03B682B
:102C2C00B3F1FF3F1AD0FFF75DFC02467B69D21A65
:102C3C003B689A4202D83B68002B0FD17B68DB6B58
:102C4C0043F020027B68DA637B68032283F8392027
:102C5C007B68002283F83820032386E07B681B689E
:102C6C005B6803F00203002BACD07B681B68DB694C
:102C7C0003F020033B617B681B685B6A03F0200355
:102C8C003A6913433B613B69002B61D0FFF72AFC87
:102C9C00786156E07B681B685B68FB60FB6803F03F
:102CAC002903002B2ED0FB6803F00803002B05D062
:102CBC007B68DB6B43F004027B68DA63FB6803F030
:102CCC002003002B05D07B68DB6B43F002027B6892
:102CDC00DA63FB6803F00103002B05D07B68DB6B28
:102CEC0043F001027B68DA637B681B6829229A60D7
:102CFC007B68042283F839207B68002283F8382013
:102D0C00012332E03B68B3F1FF3F1AD0FFF7EAFB37
:102D1C0002467B69D21A3B689A4202D83B68002B68
:102D2C000FD17B68DB6B43F020027B68DA637B6836
:102D3C00032283F839207B68002283F83820032390
:102D4C0013E07B681B685B6803F01003002BA1D0B9
:102D5C007B681B6812229A607B68012283F83920F9
:102D6C007B68002283F83820002318461837BD46AC
:102D7C0080BD80B584B000AF78607B681B685B68F1
:102D8C00FB607B681B681B68BB60FB6803F001037E
:102D9C00002B26D0BB6803F48073002B21D07B68FA
:102DAC001B687A681268126822F480721A607B6859
:102DBC00DB6B43F001027B68DA637B681B680122E2
:102DCC009A607B68042283F839207B68002283F8A0
:102DDC0038207B685B69002B03D07B685B69786863
:102DEC009847FB6803F02003002B26D0BB6803F444
:102DFC000053002B21D07B681B687A68126812681C
:102E0C0022F400521A607B681B6820229A607B684F
:102E1C00DB6B43F002027B68DA637B68042283F885
:102E2C0039207B68002283F838207B685B69002B93
:102E3C0003D07B685B6978689847FB6803F00803EC
:102E4C00002B26D0BB6803F40063002B21D07B68D9
:102E5C001B687A681268126822F400621A607B6838
:102E6C001B6808229A607B68DB6B43F004027B686A
:102E7C00DA637B68042283F839207B68002283F8AC
:102E8C0038207B685B69002B03D07B685B697868B2
:102E9C009847FB6803F00403002B13D0BB6803F4C2
:102EAC008063002B0ED07B681B687A6812681268EE
:102EBC0022F480621A607B681B6804229A6078682E
:102ECC0000F053F8FB6803F00203002B24D0BB681E
:102EDC0003F40073002B1FD07B681B687A681268A0
:102EEC00126822F400721A607B681B6802229A60D6
:102EFC007B68DA6B7B68DA637B68012283F83920A4
:102F0C007B68002283F838207B681B69002B03D078
:102F1C007B681B6978689847FB6803F01003002BEB
:102F2C001FD0BB6803F48053002B1AD07B681B683E
:102F3C007A681268126822F480521A607B681B68E7
:102F4C0010229A607B68DA6B7B68DA637B680122FB
:102F5C0083F839207B68002283F83820786800F0E9
:102F6C000EF800BF1037BD4680BD80B483B000AFF3
:102F7C00786000BF0C37BD465DF8047B704780B4A9
:102F8C0083B000AF786000BF0C37BD465DF8047BA2
:102F9C007047000080B487B000AF786039607B6800
:102FAC005B68B3F5403F7B6893F83830012B01D157
:102FBC00022377E07B68012283F838207B680222A9
:102FCC0083F839203B681B0118337A6813443B6142
:102FDC003B695A683B699B681B0413437B61344B08
:102FEC00FB603B695B680A2B03D03B695B68092B70
:102FFC0007D13B69DB6803F07F437A6913437B613C
:10300C0005E03B69DB681B067A6913437B613B680F
:10301C00002B1FD17B681B687A681268516AFA68AA
:10302C00D24311407A690A435A627B681B683A6939
:10303C0012689A613B695B680A2B03D03B695B6839
:10304C00092B26D17B681B683A69D26822F07F4233
:10305C009A621EE07B681B687A681268D169FA680C
:10306C00D24311407A690A43DA617B681B683A697A
:10307C0012681A613B695B680A2B03D03B695B6879
:10308C00092B06D17B681B683A69D26822F07F4213
:10309C001A627B68012283F839207B68002283F84E
:1030AC003820002318461C37BD465DF8047B70475A
:1030BC000F0003FF80B48BB000AFF860B9607A608A
:1030CC003B60FB681B68FA681268526C02F0404166
:1030DC003A6810043A6B02430A435A64FB681B6853
:1030EC007A68DA63FB685B68B3F5403F74D1BB6800
:1030FC0003F07F433B62BB6803F47F03FB61BB6857
:10310C0003F47F43BB61BB68DBB27B61FB689B68EC
:10311C00002B08D1BA69FB691A433B6A1A437B69D5
:10312C0013437B6253E0FB689B68012B06D1BA69A1
:10313C00FB691A437B6913437B6248E0FB689B681D
:10314C00022B11D1FB69DB0CFB61BB699B0ABB61D8
:10315C007B69DB087B61BB695A01FB69DB021A43A3
:10316C007B6913437B6232E0FB689B68032B17D1AE
:10317C003B6ADB0F3B62FB69DB0CFB61BB69DB0A67
:10318C00BB617B69DB087B61BB695A01FB699B02F4
:10319C001A433B6ADB031A437B6913437B6216E0D9
:1031AC003B6A1B0F3B62FB691B0DFB61BB691B0B75
:1031BC00BB617B691B097B61BB691A01FB691B0243
:1031CC001A433B6A1B031A437B6913437B62FB68FC
:1031DC001B687A6A9A6303E0FB681B68BA68DA605A
:1031EC0000BF2C37BD465DF8047B704780B489B0B6
:1031FC0000AF7860396000237B6100233B610023C2
:10320C00BB610023FB6177E10122FB6902FA03F346
:10321C007B613B681A687B6913403B613A697B6947
:10322C009A4240F066813B685B68022B03D03B6896
:10323C005B68122B23D1FB69DA087B68083253F8E0
:10324C002230BB61FB6903F007039B000F2202FADB
:10325C0003F3DB43BA691340BB613B681A69FB6932
:10326C0003F007039B0002FA03F3BA691343BB6133
:10327C00FB69DA087B680832B96943F822107B686D
:10328C001B68BB61FB695B00032202FA03F3DB439F
:10329C00BA691340BB613B685B6803F00302FB69CE
:1032AC005B0002FA03F3BA691343BB617B68BA692A
:1032BC001A603B685B68012B0BD03B685B68022B88
:1032CC0007D03B685B68112B03D03B685B68122B03
:1032DC0030D17B689B68BB61FB695B00032202FAFF
:1032EC0003F3DB43BA691340BB613B68DA68FB69E3
:1032FC005B0002FA03F3BA691343BB617B68BA69DA
:10330C009A607B685B68BB610122FB6902FA03F37C
:10331C00DB43BA691340BB613B685B681B0903F074
:10332C000102FB6902FA03F3BA691343BB617B68C0
:10333C00BA695A607B68DB68BB61FB695B0003227E
:10334C0002FA03F3DB43BA691340BB613B689A682A
:10335C00FB695B0002FA03F3BA691343BB617B6838
:10336C00BA69DA603B685B6803F08053002B00F0AD
:10337C00C0800023FB60654A644B5B6C43F4804364
:10338C005364624B5B6C03F48043FB60FB68604AE4
:10339C00FB699B08023352F82330BB61FB6903F0D5
:1033AC0003039B000F2202FA03F3DB43BA691340B9
:1033BC00BB617B68574A934237D07B68564A93422D
:1033CC0031D07B68554A93422BD07B68544A934248
:1033DC0025D07B68534A93421FD07B68524A934254
:1033EC0019D07B68514A934213D07B68504A934260
:1033FC000DD07B684F4A934207D07B684E4A93426C
:10340C0001D1092312E00A2310E008230EE0072360
:10341C000CE006230AE0052308E0042306E003235E
:10342C0004E0022302E0012300E00023FA6902F029
:10343C00030292009340BA691343BB613449FB69A0
:10344C009B080233BA6941F823203C4B1B68BB61D3
:10345C003B69DB43BA691340BB613B685B6803F4AF
:10346C008033002B03D0BA693B691343BB61334AE9
:10347C00BB691360314B5B68BB613B69DB43BA6969
:10348C001340BB613B685B6803F40033002B03D033
:10349C00BA693B691343BB61284ABB695360274B2C
:1034AC009B68BB613B69DB43BA691340BB613B68FA
:1034BC005B6803F48013002B03D0BA693B69134398
:1034CC00BB611E4ABB6993601C4BDB68BB613B69EB
:1034DC00DB43BA691340BB613B685B6803F40013C0
:1034EC00002B03D0BA693B691343BB61134ABB6918
:1034FC00D360FB690133FB61FB690F2B7FF684AE54
:10350C0000BF2437BD465DF8047B7047003802408D
:10351C000038014000000240000402400008024054
:10352C00000C02400010024000140240001802403F
:10353C00001C02400020024000240240003C0140DC
:10354C0080B487B000AF7860396000233B61002302
:10355C00FB600023BB6000237B61DAE001227B6906
:10356C0002FA03F33B613A683B691340FB60FA686B
:10357C003B699A4240F0CA806B4A7B699B080233D4
:10358C0052F82330BB607B6903F003039B000F22CE
:10359C0002FA03F3BA681340BB607B68634A934238
:1035AC0037D07B68624A934231D07B68614A934240
:1035BC002BD07B68604A934225D07B685F4A93424C
:1035CC001FD07B685E4A934219D07B685D4A934258
:1035DC0013D07B685C4A93420DD07B685B4A934264
:1035EC0007D07B685A4A934201D1092312E00A237F
:1035FC0010E008230EE007230CE006230AE0052365
:10360C0008E0042306E0032304E0022302E0012384
:10361C0000E000237A6902F00302920003FA02F23E
:10362C00BB689A4232D17B6903F003039B000F22E3
:10363C0002FA03F3BB603C487B699B083A497A6900
:10364C009208023251F82210BA68D2430A4002336F
:10365C0040F823203F493F4B1A68FB68DB4313407B
:10366C000B603C493B4B5A68FB68DB4313404B6097
:10367C003849384B9A68FB68DB4313408B603549FB
:10368C00344BDA68FB68DB431340CB607B681A6809
:10369C007B695B00032101FA03F3DB431A407B686F
:1036AC001A607B69DA087B69D9087B68083153F8A2
:1036BC0021107B6903F007039B000F2000FA03F332
:1036CC00DB4319407B68083243F822107B689A6808
:1036DC007B695B00032101FA03F3DB431A407B682F
:1036EC009A607B685A6801217B6901FA03F3DB431A
:1036FC001A407B685A607B68DA687B695B0003213F
:10370C0001FA03F3DB431A407B68DA607B6901330F
:10371C007B617B690F2B7FF621AF00BF1C37BD4649
:10372C005DF8047B704700BF003801400000024088
:10373C000004024000080240000C0240001002404D
:10374C000014024000180240001C024000200240FD
:10375C0000240240003C014080B483B000AF78608C
:10376C000B467B8013467B707B78002B03D07A88CA
:10377C007B689A6103E07B881A047B689A6100BFBE
:10378C000C37BD465DF8047B704780B586B000AF42
:10379C0078607B681B683B613B69FB607B681B68DE
:1037AC00184604F00DFF0346012B40F0F2807B68B5
:1037BC001B68184604F0F1FE0346002B00F0E8806D
:1037CC007B681B68184604F0E8FE034603F40013FC
:1037DC00B3F5001F04D17B681B684FF400125A61CB
:1037EC007B681B68184604F0D8FE034603F480136C
:1037FC00B3F5801F04D17B681B684FF480125A61AB
:10380C007B681B68184604F0C8FE034603F080630F
:10381C00B3F1806F04D17B681B684FF080625A61F2
:10382C007B681B68184604F0B8FE034603F00203DD
:10383C00022B03D17B681B6802225A617B681B68D0
:10384C00184604F0AAFE034603F00053B3F1005FE0
:10385C0018D1FB6803F588631A46FB6803F5886387
:10386C001B6823F02E031360786806F07FFA7B68E0
:10387C001B680121184604F0B1FE7B681B684FF0F1
:10388C0000525A617B681B68184604F086FE03469A
:10389C0003F08073B3F1807F02D1786801F088F86F
:1038AC007B681B68184604F078FE034603F0080397
:1038BC00082B06D1786806F03DFA7B681B68082255
:1038CC005A617B681B68184604F067FE034603F0D8
:1038DC000073B3F1007F38D17B681B68184604F085
:1038EC00F4FEB86000237B6125E07B6903F00F03D5
:1038FC00BA6822FA03F303F00103002B18D07B699A
:10390C005A01FB68134403F5A0631B6803F40043DE
:10391C00B3F5004F06D17B69DBB21946786800F02D
:10392C007BF805E07B69DBB21946786800F015FC82
:10393C007B6901337B617B689A687B699A42D4D836
:10394C007B681B684FF000725A617B681B681846D5
:10395C0004F023FE034603F01003102B01D10123C6
:10396C0000E00023002B14D07B681B687A68126877
:10397C00926922F010029A61786800F06DFF7B6802
:10398C001B687A681268926942F010029A6100E032
:10399C0000BF1837BD4680BD80B582B000AF7860DF
:1039AC007B6893F8B832012B01D1022313E07B68BA
:1039BC00012283F8B8227B681B68184604F05AFD74
:1039CC007B681B680121184604F044FE7B680022CA
:1039DC0083F8B822002318460837BD4680BD80B551
:1039EC0082B000AF78607B6893F8B832012B01D1BC
:1039FC0002230DE07B68012283F8B8227B681B68E8
:103A0C00184604F07CFF7B68002283F8B822002360
:103A1C0018460837BD4680BD80B586B000AF7860CB
:103A2C000B46FB707B681B687B617B693B61FB7899
:103A3C00FB60FB685A013B69134403F5A0639B6868
:103A4C0003F00403042B1AD1FB685A013B6913449D
:103A5C0003F5A0631A4604239360FB685A013B6983
:103A6C00134403F5A0631946FB685A013B691344E0
:103A7C0003F5A063DB6843F00203CB6097E0FB68BF
:103A8C005A013B69134403F5A0639B6803F02003C0
:103A9C00202B09D1FB685A013B69134403F5A06341
:103AAC001A462023936082E0FB685A013B69134459
:103ABC0003F5A0639B6803F00803082B35D1FB6862
:103ACC005A013B69134403F5A0631946FB685A017C
:103ADC003B69134403F5A063DB6843F00203CB603E
:103AEC007968FA6813469B001344DB000B445D3382
:103AFC0005221A70FB685A013B69134403F5A06355
:103B0C001A4610239360FB685A013B69134403F572
:103B1C00A0631A46082393607B681B68FA68D2B2CC
:103B2C001146184604F0E2FD41E0FB685A013B697E
:103B3C00134403F5A0639B6803F48063B3F5806FB3
:103B4C0035D1FB685A013B69134403F5A063194650
:103B5C00FB685A013B69134403F5A063DB6843F02F
:103B6C000203CB607B681B68FA68D2B21146184618
:103B7C0004F0BCFDFB685A013B69134403F5A063D8
:103B8C001A46102393607968FA6813469B00134415
:103B9C00DB000B445D3308221A70FB685A013B6949
:103BAC00134403F5A0631A464FF480639360FB68DB
:103BBC005A013B69134403F5A0639B6803F400733B
:103BCC00B3F5007F23D1FB685A013B69134403F51D
:103BDC00A0631946FB685A013B69134403F5A063C3
:103BEC00DB6843F00203CB607B681B68FA68D2B2D7
:103BFC001146184604F07AFDFB685A013B691344E0
:103C0C0003F5A0631A464FF400739360A1E2FB68BE
:103C1C005A013B69134403F5A0639B6803F001034D
:103C2C00012B40F0C3807B681B69002B1BD079688B
:103C3C00FA6813469B001344DB000B4448331A68A4
:103C4C00FB6859013B690B4403F5A0631B69C3F383
:103C5C001203D11A7868FA6813469B001344DB00F0
:103C6C0003444C3319607968FA6813469B0013447B
:103C7C00DB000B445D3301221A707968FA68134635
:103C8C009B001344DB000B44583300221A60FB6882
:103C9C005A013B69134403F5A0631A460123936050
:103CAC007968FA6813469B001344DB000B443F33DE
:103CBC001B78002B0AD07968FA6813469B001344D2
:103CCC00DB000B443F331B78022B22D1FB685A01DB
:103CDC003B69134403F5A0631946FB685A013B6921
:103CEC00134403F5A063DB6843F00203CB607B68ED
:103CFC001B68FA68D2B21146184604F0F7FCFB6850
:103D0C005A013B69134403F5A0631A4610239360D0
:103D1C0035E07968FA6813469B001344DB000B44CA
:103D2C003F331B78032B2AD1FB685A013B691344A0
:103D3C0003F5A0631946FB685A013B69134403F56C
:103D4C00A0631B6843F000530B607968FA68134654
:103D5C009B001344DB000B445C3301221A70FB689C
:103D6C00D8B27968FA6813469B001344DB000B4405
:103D7C005C331B781A460146786806F005F87968BA
:103D8C00FA6813469B001344DB000B4450331B783A
:103D9C0083F00103D8B27968FA6813469B00134488
:103DAC00DB000B44503302461A70D2E1FB685A0117
:103DBC003B69134403F5A0639B6803F00203022BD9
:103DCC0040F0F280FB685A013B69134403F5A06391
:103DDC001946FB685A013B69134403F5A063DB6881
:103DEC0023F00203CB607968FA6813469B001344F6
:103DFC00DB000B445D331B78012B0AD17968FA6820
:103E0C0013469B001344DB000B445C3301221A70F5
:103E1C00B0E07968FA6813469B001344DB000B444E
:103E2C005D331B78052B0AD17968FA6813469B0021
:103E3C001344DB000B445C3305221A709AE079685A
:103E4C00FA6813469B001344DB000B445D331B786C
:103E5C00062B0AD07968FA6813469B001344DB00E2
:103E6C000B445D331B78082B56D17968FA681346DE
:103E7C009B001344DB000B4458331B68591C7868B7
:103E8C00FA6813469B001344DB0003445833196053
:103E9C007968FA6813469B001344DB000B445833D3
:103EAC001B68032B14D97968FA6813469B001344DA
:103EBC00DB000B44583300221A607968FA68134609
:103ECC009B001344DB000B445C3304221A7009E0A2
:103EDC007968FA6813469B001344DB000B445C338F
:103EEC0002221A70FB685A013B69134403F5A06364
:103EFC001B68BB60BB6823F08043BB60BB6843F0AE
:103F0C000043BB60FB685A013B69134403F5A06393
:103F1C001A46BB6813602DE07968FA6813469B005B
:103F2C001344DB000B445D331B78032B22D17968DF
:103F3C00FA6813469B001344DB000B445C330222EB
:103F4C001A70FB685A013B69134403F5A0631B68A4
:103F5C00BB60BB6823F08043BB60BB6843F000438D
:103F6C00BB60FB685A013B69134403F5A0631A4616
:103F7C00BB681360FB685A013B69134403F5A063EB
:103F8C001A4602239360FB68D8B27968FA68134624
:103F9C009B001344DB000B445C331B781A46014630
:103FAC00786805F0F1FED4E0FB685A013B691344D4
:103FBC0003F5A0639B6803F08003802B3FD1FB6863
:103FCC005A013B69134403F5A0631946FB685A0177
:103FDC003B69134403F5A063DB6843F00203CB6039
:103FEC007968FA6813469B001344DB000B44583382
:103FFC001B68591C7868FA6813469B001344DB0055
:10400C000344583319607968FA6813469B001344CB
:10401C00DB000B445D3306221A707B681B68FA6860
:10402C00D2B21146184604F061FBFB685A013B6999
:10403C00134403F5A0631A468023936089E0FB6860
:10404C005A013B69134403F5A0639B6803F010030A
:10405C00102B7ED17968FA6813469B001344DB0061
:10406C000B443F331B78032B23D17968FA68134632
:10407C009B001344DB000B44583300221A60FB688E
:10408C005A013B69134403F5A0631946FB685A01B6
:10409C003B69134403F5A063DB6843F00203CB6078
:1040AC007B681B68FA68D2B21146184604F01EFBF6
:1040BC0046E07968FA6813469B001344DB000B4416
:1040CC003F331B78002B0AD07968FA6813469B00A3
:1040DC001344DB000B443F331B78022B30D179683F
:1040EC00FA6813469B001344DB000B445833002240
:1040FC001A607B681B69002B22D17968FA68134619
:10410C009B001344DB000B445D3303221A70FB68E5
:10411C005A013B69134403F5A0631946FB685A0125
:10412C003B69134403F5A063DB6843F00203CB60E7
:10413C007B681B68FA68D2B21146184604F0D6FAAE
:10414C00FB685A013B69134403F5A0631A4610231C
:10415C00936000BF1837BD4680BD80B586B000AFF8
:10416C0078600B46FB707B681B687B617B693B61ED
:10417C00FB78FB60FB685A013B69134403F5A063B1
:10418C009B6803F00403042B1AD1FB685A013B69AA
:10419C00134403F5A0631A4604239360FB685A0189
:1041AC003B69134403F5A0631946FB685A013B694C
:1041BC00134403F5A063DB6843F00203CB6047E3D1
:1041CC00FB685A013B69134403F5A0639B6803F039
:1041DC002003202B42D1FB685A013B69134403F5A1
:1041EC00A0631A46202393607968FA6813469B00F3
:1041FC001344DB000B443D331B78012B40F0288328
:10420C007968FA6813469B001344DB000B443D337A
:10421C0000221A707968FA6813469B001344DB007D
:10422C000B445C3302221A70FB685A013B6913443D
:10423C0003F5A0631946FB685A013B69134403F567
:10424C00A063DB6843F00203CB607B681B68FA68F1
:10425C00D2B21146184604F049FAF9E2FB685A0149
:10426C003B69134403F5A0639B6803F04003402BA8
:10427C0040D17968FA6813469B001344DB000B4469
:10428C005D3304221A707968FA6813469B00134454
:10429C00DB000B443D3301221A707968FA6813462F
:1042AC009B001344DB000B44583300221A60FB685C
:1042BC005A013B69134403F5A0631946FB685A0184
:1042CC003B69134403F5A063DB6843F00203CB6046
:1042DC007B681B68FA68D2B21146184604F006FADD
:1042EC00FB685A013B69134403F5A0631A4640234B
:1042FC009360ADE2FB685A013B69134403F5A0637C
:10430C009B6803F40073B3F5007F23D1FB685A015B
:10431C003B69134403F5A0631946FB685A013B69DA
:10432C00134403F5A063DB6843F00203CB607B68A6
:10433C001B68FA68D2B21146184604F0D7F9FB682C
:10434C005A013B69134403F5A0631A464FF40073FA
:10435C0093607DE2FB685A013B69134403F5A0634B
:10436C009B6803F00103012B36D17968FA68134678
:10437C009B001344DB000B44583300221A60FB688B
:10438C005A013B69134403F5A0631946FB685A01B3
:10439C003B69134403F5A063DB6843F00203CB6075
:1043AC007B681B68FA68D2B21146184604F09EF975
:1043BC00FB685A013B69134403F5A0631A460123B9
:1043CC0093607968FA6813469B001344DB000B4436
:1043DC005D3301221A703BE2FB685A013B691344BE
:1043EC0003F5A0639B6803F00803082B2CD1FB6832
:1043FC005A013B69134403F5A0631A4608239360E2
:10440C00FB685A013B69134403F5A0631946FB682A
:10441C005A013B69134403F5A063DB6843F00203C4
:10442C00CB607B681B68FA68D2B21146184604F060
:10443C005DF97968FA6813469B001344DB000B4462
:10444C005D3305221A7003E2FB685A013B69134481
:10445C0003F5A0639B6803F01003102B56D1796809
:10446C00FA6813469B001344DB000B4458330022BC
:10447C001A607968FA6813469B001344DB000B44FE
:10448C005D3303221A707968FA6813469B00134453
:10449C00DB000B443D331B78002B14D17968FA6890
:1044AC0013469B001344DB000B443C331B78002B5E
:1044BC0009D17968FA6813469B001344DB000B445E
:1044CC003D3301221A70FB685A013B69134403F512
:1044DC00A0631946FB685A013B69134403F5A063BA
:1044EC00DB6843F00203CB607B681B68FA68D2B2CE
:1044FC001146184604F0FAF8FB685A013B6913445C
:10450C0003F5A0631A4610239360A1E1FB685A01DE
:10451C003B69134403F5A0639B6803F08003802B75
:10452C002CD1FB685A013B69134403F5A06319466F
:10453C00FB685A013B69134403F5A063DB6843F045
:10454C000203CB607B681B68FA68D2B2114618462E
:10455C0004F0CCF87968FA6813469B001344DB002E
:10456C000B445D3306221A70FB685A013B691344F5
:10457C0003F5A0631A468023936069E1FB685A0136
:10458C003B69134403F5A0639B6803F48063B3F5A4
:10459C00806F36D1FB685A013B69134403F5A06365
:1045AC001946FB685A013B69134403F5A063DB68A9
:1045BC0043F00203CB607B681B68FA68D2B21146E9
:1045CC00184604F093F8FB685A013B69134403F551
:1045DC00A0631A4610239360FB685A013B6913448D
:1045EC0003F5A0631A464FF4806393607968FA6808
:1045FC0013469B001344DB000B445D3308221A70F6
:10460C0026E1FB685A013B69134403F5A0639B68E0
:10461C0003F00203022B40F01B81FB685A013B693B
:10462C00134403F5A0631946FB685A013B69134414
:10463C0003F5A063DB6823F00203CB607968FA68AA
:10464C0013469B001344DB000B445D331B78012B9A
:10465C0037D17968FA6813469B001344DB000B448E
:10466C005C3301221A707968FA6813469B00134474
:10467C00DB000B443F331B78022B0BD07968FA68B4
:10468C0013469B001344DB000B443F331B78032B76
:10469C0040F0C5807968FA6813469B001344DB0030
:1046AC000B4451331B7883F00103D8B27968FA6854
:1046BC0013469B001344DB000B44513302461A7023
:1046CC00ADE07968FA6813469B001344DB000B4499
:1046DC005D331B78032B0AD17968FA6813469B006B
:1046EC001344DB000B445C3302221A7097E07968A8
:1046FC00FA6813469B001344DB000B445D331B78B4
:10470C00042B0AD17968FA6813469B001344DB002A
:10471C000B445C3302221A7081E07968FA68134604
:10472C009B001344DB000B445D331B78052B0AD133
:10473C007968FA6813469B001344DB000B445C3326
:10474C0005221A706BE07968FA6813469B001344D3
:10475C00DB000B445D331B78062B0AD07968FA68B2
:10476C0013469B001344DB000B445D331B78082B72
:10477C0055D17968FA6813469B001344DB000B444F
:10478C0058331B68591C7868FA6813469B0013440D
:10479C00DB000344583319607968FA6813469B00B0
:1047AC001344DB000B4458331B68032B14D9796872
:1047BC00FA6813469B001344DB000B445833002269
:1047CC001A607968FA6813469B001344DB000B44AB
:1047DC005C3304221A7009E07968FA6813469B006E
:1047EC001344DB000B445C3302221A70FB685A0141
:1047FC003B69134403F5A0631B68BB60BB6823F0E3
:10480C008043BB60BB6843F00043BB60FB685A014C
:10481C003B69134403F5A0631A46BB681360FB683D
:10482C005A013B69134403F5A0631A4602239360B3
:10483C00FB68D8B27968FA6813469B001344DB0016
:10484C000B445C331B781A460146786805F09CFAD9
:10485C0000BF1837BD4680BD80B58AB000AF786008
:10486C007B681B687B627B6A3B627B681B681B6A8C
:10487C00FB61FB6903F00F03BB61FB695B0C03F08D
:10488C000F037B61FB691B09C3F30A033B617B6963
:10489C00022B03D0052B00F0828083E03B69002BB8
:1048AC007FD07968BA6913469B001344DB000B4434
:1048BC0044331B68002B74D07B6818687968BA691C
:1048CC0013469B001344DB000B4444331B683A69CA
:1048DC0092B2194603F038FE7968BA6913469B0008
:1048EC001344DB000B4444331A683B69D1187868D5
:1048FC00BA6913469B001344DB000344443319602C
:10490C007968BA6913469B001344DB000B444C33A3
:10491C001A683B69D1187868BA6913469B0013442E
:10492C00DB0003444C331960BB695A013B6A1344E6
:10493C0003F5A0631A691D4B1340002B31D0BB69E2
:10494C005A013B6A134403F5A0631B68FB60FB68C8
:10495C0023F08043FB60FB6843F00043FB60BB69C2
:10496C005A013B6A134403F5A0631A46FB681360B3
:10497C007968BA6913469B001344DB000B4450332F
:10498C001B7883F00103D8B27968BA6913469B008F
:10499C001344DB000B44503302461A7001E000BF95
:1049AC0000E000BF00BF2837BD4680BD0000F81FE7
:1049BC0080B586B000AF78607B681B687B617B69D3
:1049CC003B613B6903F588631B68FB603B6903F53E
:1049DC0088631B68BB60BB6823F02E03BB60FB685D
:1049EC0003F00203022B13D1FB6803F00103012B2C
:1049FC000AD17B681B687A681268926922F00052AF
:104A0C009A61786805F0A4F9BB6843F00203BB60B7
:104A1C00FB6803F00803082B48D1BB6843F008037C
:104A2C00BB60FB6803F00403042B29D17B689B69F2
:104A3C00022B13D1FB6803F4C023B3F5802F06D1EE
:104A4C007B681B680221184603F0C8FD11E07B68E7
:104A5C001B680121184603F0C1FD0AE07B68DB6886
:104A6C00012B06D13B6903F580631A464EF6602391
:104A7C005360786805F096F9786805F069F915E0E7
:104A8C00786805F09DF93B6903F588631A463B6924
:104A9C0003F588631B6823F02E0313607B681B6887
:104AAC007A681268926942F000529A61FB6803F0CE
:104ABC002003202B03D1BB6843F02003BB603B6970
:104ACC0003F588631A46BB68136000BF1837BD46F0
:104ADC0080BD000090B585B000AF78607B68002B7E
:104AEC0001D101230FE17B6893F83D30DBB2002B41
:104AFC0006D17B68002283F83C20786804F006FB22
:104B0C007B68242283F83D207B681B687A681268D6
:104B1C00126822F001021A6001F0B6FFF8607B689F
:104B2C005B687B4A934207D8FB687A4A934294BFEE
:104B3C0001230023DBB206E0FB68774A934294BF63
:104B4C0001230023DBB2002B01D00123DBE0FB6847
:104B5C00724AA2FB03239B0CBB607B681B687A68C0
:104B6C001268526822F03F01BA680A435A607B68A7
:104B7C001A687B681B681B6A23F03F017B685B68C3
:104B8C006348834202D8BB68013309E0BB684FF429
:104B9C00967000FB03F36248A0FB03039B090133EF
:104BAC000B4313627B6818687B681B68DB6923F412
:104BBC004F4222F0FF027B685B6855498B420DD84F
:104BCC00FB68591E7B685B685B00B1FBF3F3013338
:104BDC00C3F30B03042B38BF04234FE07B689B68A3
:104BEC00002B11D1FB685C1E7B6859680B465B007F
:104BFC000B44B4FBF3F30133C3F30B03002B0CBFD7
:104C0C0001230023DBB212E0FB685C1E7B68596851
:104C1C000B469B000B4499000B44B4FBF3F301339C
:104C2C00C3F30B03002B0CBF01230023DBB2002BBF
:104C3C0001D0012322E07B689B68002B0ED1FB681E
:104C4C005C1E7B6859680B465B000B44B4FBF3F3AA
:104C5C000133C3F30B0343F400430FE0FB685C1E0A
:104C6C007B6859680B469B000B4499000B44B4FBC2
:104C7C00F3F30133C3F30B0343F440431343C36116
:104C8C007B681B687A681268126822F0C0017A6827
:104C9C00D0697A68126A02430A431A607B681A6800
:104CAC007B681B689B6823F4034323F0FF0379683C
:104CBC0008697968C96801430B4393607B681B687A
:104CCC007A681268D26822F0FF017A6850697A68B3
:104CDC00926902430A43DA607B681B687A6812683F
:104CEC00126842F001021A607B6800221A647B6829
:104CFC00202283F83D207B6800221A637B68002207
:104D0C0083F83E20002318461437BD4690BD00BFE3
:104D1C00A08601007F841E00FF083D0083DE1B433C
:104D2C00D34D621080B582B000AF78607B68002BE9
:104D3C0001D1012321E07B68242283F83D207B688C
:104D4C001B687A681268126822F001021A6078688F
:104D5C0004F046FA7B6800221A647B68002283F810
:104D6C003D207B6800221A637B68002283F83E207A
:104D7C007B68002283F83C20002318460837BD4688
:104D8C0080BD000080B588B002AFF86008461146BF
:104D9C001A4603467B810B463B811346FB80FDF78D
:104DAC00A1FB7861FB6893F83D30DBB2202B40F01F
:104DBC00D9807B690093192301226D49F86800F0B2
:104DCC0067FC0346002B01D00223CCE0FB6893F870
:104DDC003C30012B01D10223C5E0FB68012283F892
:104DEC003C20FB681B681B6803F00103012B07D0F8
:104DFC00FB681B68FA681268126842F001021A60BC
:104E0C00FB681B68FA681268126822F400621A6068
:104E1C00FB68212283F83D20FB68402283F83E206A
:104E2C00FB6800221A64FB683A6A5A62FB68BA8C07
:104E3C005A85FB685B8D9AB2FB681A85FB684D4AF4
:104E4C00DA62F8883A8979897B690193BB6A0093A5
:104E5C000346F86800F0C4FA0346002B52D0012335
:104E6C0081E07A69B96AF86800F0E8FC0346002B27
:104E7C000DD0FB681B6C042B07D1FB681B68FA6810
:104E8C001268126842F400721A6001236BE0FB682E
:104E9C001B68FA68526A12781A61FB685B6A5A1CC2
:104EAC00FB685A62FB681B8D013B9AB2FB681A8542
:104EBC00FB685B8D9BB2013B9AB2FB685A85FB6821
:104ECC001B685B6903F00403042B1BD1FB681B8D6F
:104EDC00002B17D0FB681B68FA68526A12781A61AB
:104EEC00FB685B6A5A1CFB685A62FB681B8D013BB2
:104EFC009AB2FB681A85FB685B8D9BB2013B9AB238
:104F0C00FB685A85FB681B8D002BAAD17A69B96A9C
:104F1C00F86800F0D4FC0346002B0DD0FB681B6C2A
:104F2C00042B07D1FB681B68FA681268126842F4FC
:104F3C0000721A60012316E0FB681B68FA6812689D
:104F4C00126842F400721A60FB68202283F83D203C
:104F5C00FB68002283F83E20FB68002283F83C208B
:104F6C00002300E0022318461837BD4680BD00BF61
:104F7C00020010000000FFFF80B58CB002AFF8609B
:104F8C00084611461A4603467B810B463B81134665
:104F9C00FB80FDF7A7FA7862FB6893F83D30DBB233
:104FAC00202B40F008827B6A0093192301227B4955
:104FBC00F86800F06DFB0346002B01D00223FBE1E7
:104FCC00FB6893F83C30012B01D10223F4E1FB6820
:104FDC00012283F83C20FB681B681B6803F001036B
:104FEC00012B07D0FB681B68FA681268126842F044
:104FFC0001021A60FB681B68FA681268126822F4D6
:10500C0000621A60FB68222283F83D20FB68402274
:10501C0083F83E20FB6800221A64FB683A6B5A62E4
:10502C00FB68BA8E5A85FB685B8D9AB2FB681A8551
:10503C00FB685B4ADA62F8883A8979897B6A019362
:10504C00BB6B00930346F86800F052FA0346002B42
:10505C0001D00123B0E1FB681B8D002B13D1002381
:10506C003B62FB681B685B693B62FB681B689B6966
:10507C003B623B6AFB681B68FA681268126842F470
:10508C0000721A6084E1FB681B8D012B1BD1FB683D
:10509C001B68FA681268126822F480621A60002396
:1050AC00FB61FB681B685B69FB61FB681B689B69A8
:1050BC00FB61FB69FB681B68FA681268126842F4B2
:1050CC0000721A6064E1FB681B8D022B1BD1FB681C
:1050DC001B68FA681268126822F480621A60FB6816
:1050EC001B68FA681268126842F400621A600023A6
:1050FC00BB61FB681B685B69BB61FB681B689B69D8
:10510C00BB61BB6944E100237B61FB681B685B6985
:10511C007B61FB681B689B697B617B6938E1FB6881
:10512C001B8D032B00F2F180FB681B8D012B23D10F
:10513C007A6AB96BF86800F003FC0346002B01D0C7
:10514C00012339E1FB685B6AFA6812681269D2B212
:10515C001A70FB685B6A5A1CFB685A62FB681B8DF1
:10516C00013B9AB2FB681A85FB685B8D9BB2013BD5
:10517C009AB2FB685A850BE1FB681B8D022B4ED152
:10518C007B6A0093BB6B00220649F86800F080FA3A
:10519C000346002B08D001230EE100BF02001000D3
:1051AC000000FFFF04000100FB681B68FA6812682E
:1051BC00126842F400721A60FB685B6AFA68126843
:1051CC001269D2B21A70FB685B6A5A1CFB685A628D
:1051DC00FB681B8D013B9AB2FB681A85FB685B8DE3
:1051EC009BB2013B9AB2FB685A85FB685B6AFA6812
:1051FC0012681269D2B21A70FB685B6A5A1CFB689F
:10520C005A62FB681B8D013B9AB2FB681A85FB68DE
:10521C005B8D9BB2013B9AB2FB685A85B8E07B6A06
:10522C000093BB6B00226649F86800F031FA034624
:10523C00002B01D00123BFE0FB681B68FA681268E1
:10524C00126822F480621A60FB685B6AFA68126862
:10525C001269D2B21A70FB685B6A5A1CFB685A62FC
:10526C00FB681B8D013B9AB2FB681A85FB685B8D52
:10527C009BB2013B9AB2FB685A857B6A0093BB6B6D
:10528C0000224F49F86800F003FA0346002B01D0C6
:10529C00012391E0FB681B68FA681268126842F4FB
:1052AC0000721A60FB685B6AFA6812681269D2B203
:1052BC001A70FB685B6A5A1CFB685A62FB681B8D90
:1052CC00013B9AB2FB681A85FB685B8D9BB2013B74
:1052DC009AB2FB685A85FB685B6AFA6812681269B5
:1052EC00D2B21A70FB685B6A5A1CFB685A62FB6884
:1052FC001B8D013B9AB2FB681A85FB685B8D9BB2D8
:10530C00013B9AB2FB685A8542E07A6AB96BF8683D
:10531C0000F016FB0346002B01D001234CE0FB6888
:10532C005B6AFA6812681269D2B21A70FB685B6A1F
:10533C005A1CFB685A62FB681B8D013B9AB2FB68D6
:10534C001A85FB685B8D9BB2013B9AB2FB685A8550
:10535C00FB681B685B6903F00403042B18D1FB6822
:10536C005B6AFA6812681269D2B21A70FB685B6ADF
:10537C005A1CFB685A62FB681B8D013B9AB2FB6896
:10538C001A85FB685B8D9BB2013B9AB2FB685A8510
:10539C00FB681B8D002B7FF4C2AEFB68202283F8C8
:1053AC003D20FB68002283F83E20FB68002283F836
:1053BC003C20002300E0022318462837BD4680BD60
:1053CC000400010080B483B000AF78607B6893F870
:1053DC003D30DBB218460C37BD465DF8047B704798
:1053EC0080B588B002AFF860084611461A460346ED
:1053FC007B810B463B811346FB80FB681B68FA687C
:10540C001268126842F480721A607B6A00933B6ADD
:10541C0000224FF00111F86800F03AF90346002B16
:10542C0001D001235EE0FB681B687A89D2B202F0DE
:10543C00FE021A617B6A3A6A2C49F86800F07FF91F
:10544C000346002B01D001234CE000237B61FB6859
:10545C001B685B697B61FB681B689B697B617B6973
:10546C007A6A396AF86800F0E9F90346002B0DD026
:10547C00FB681B6C042B07D1FB681B68FA6812686D
:10548C00126842F400721A6001232BE0FB88012B96
:10549C0005D1FB681B683A89D2B21A6121E0FB681E
:1054AC001B683A89120A92B2D2B21A617A6A396AC4
:1054BC00F86800F0C3F90346002B0DD0FB681B6C99
:1054CC00042B07D1FB681B68FA681268126842F457
:1054DC0000721A60012305E0FB681B683A89D2B29E
:1054EC001A61002318461837BD4680BD0200010022
:1054FC0080B588B002AFF860084611461A460346DC
:10550C007B810B463B811346FB80FB681B68FA686A
:10551C001268126842F480621A60FB681B68FA68B1
:10552C001268126842F480721A607B6A00933B6ABC
:10553C0000224FF00111F86800F0AAF80346002B86
:10554C0001D001239DE0FB681B687A89D2B202F07E
:10555C00FE021A617B6A3A6A4C49F86800F0EFF86F
:10556C000346002B01D001238BE000237B61FB68F9
:10557C001B685B697B61FB681B689B697B617B6952
:10558C007A6A396AF86800F059F90346002B0DD095
:10559C00FB681B6C042B07D1FB681B68FA6812684C
:1055AC00126842F400721A6001236AE0FB88012B36
:1055BC0005D1FB681B683A89D2B21A6121E0FB68FD
:1055CC001B683A89120A92B2D2B21A617A6A396AA3
:1055DC00F86800F033F90346002B0DD0FB681B6C08
:1055EC00042B07D1FB681B68FA681268126842F436
:1055FC0000721A60012344E0FB681B683A89D2B23E
:10560C001A617A6A396AF86800F018F90346002BB7
:10561C000DD0FB681B6C042B07D1FB681B68FA6868
:10562C001268126842F400721A60012329E0FB68C8
:10563C001B68FA681268126842F480721A607B6AFE
:10564C0000933B6A00224FF00111F86800F020F83B
:10565C000346002B01D0012313E0FB681B687A89F9
:10566C00D2B242F00102D2B21A617B6A3A6A07499D
:10567C00F86800F064F80346002B01D0012300E029
:10568C00002318461837BD4680BD00BF020001003C
:10569C0080B584B000AFF860B9603B601346FB7115
:1056AC0025E03B68B3F1FF3F21D0FCF71BFF02461E
:1056BC00BB69D21A3B689A4202D83B68002B16D1C0
:1056CC00FB6800221A63FB68202283F83D20FB68EC
:1056DC00002283F83E20FB681B6C43F02002FB6821
:1056EC001A64FB68002283F83C20012323E0BB688A
:1056FC001B0CDBB2012B0DD1FB681B685B69DA4319
:10570C00BB6813409BB2002B0CBF01230023DBB200
:10571C001A460CE0FB681B689B69DA43BB681340B4
:10572C009BB2002B0CBF01230023DBB21A46FB7982
:10573C009A42B6D0002318461037BD4680BD80B5BE
:10574C0084B000AFF860B9607A603B6051E0FB68F0
:10575C001B685B6903F48063B3F5806F23D1FB682E
:10576C001B68FA681268126842F400721A60FB68CF
:10577C001B686FF480625A61FB6800221A63FB6835
:10578C00202283F83D20FB68002283F83E20FB6832
:10579C001B6C43F00402FB681A64FB68002283F85C
:1057AC003C20012346E07B68B3F1FF3F21D0FCF79E
:1057BC0099FE02463B68D21A7B689A4202D87B68F3
:1057CC00002B16D1FB6800221A63FB68202283F899
:1057DC003D20FB68002283F83E20FB681B6C43F0E5
:1057EC002002FB681A64FB68002283F83C2001232A
:1057FC0020E0BB681B0CDBB2012B0CD1FB681B68D7
:10580C005B69DA43BB6813409BB2002B14BF0123C6
:10581C000023DBB20BE0FB681B689B69DA43BB68B7
:10582C0013409BB2002B14BF01230023DBB2002BCF
:10583C008DD1002318461037BD4680BD80B584B08D
:10584C0000AFF860B9607A602DE0F86800F0CEF82F
:10585C000346002B01D001232DE0BB68B3F1FF3FC1
:10586C0021D0FCF73FFE02467B68D21ABB689A42F5
:10587C0002D8BB68002B16D1FB6800221A63FB68A8
:10588C00202283F83D20FB68002283F83E20FB6831
:10589C001B6C43F02002FB681A64FB68002283F83F
:1058AC003C20012307E0FB681B685B6903F0800365
:1058BC00802BCAD1002318461037BD4680BD80B559
:1058CC0084B000AFF860B9607A602DE0F86800F041
:1058DC008DF80346002B01D001232DE0BB68B3F1FA
:1058EC00FF3F21D0FCF7FEFD02467B68D21ABB6855
:1058FC009A4202D8BB68002B16D1FB6800221A63AF
:10590C00FB68202283F83D20FB68002283F83E20B0
:10591C00FB681B6C43F02002FB681A64FB680022D6
:10592C0083F83C20012307E0FB681B685B6903F0EC
:10593C000403042BCAD1002318461037BD4680BD82
:10594C0080B584B000AFF860B9607A6042E0FB6863
:10595C001B685B6903F01003102B19D1FB681B68E3
:10596C006FF010025A61FB6800221A63FB68202258
:10597C0083F83D20FB68002283F83E20FB681A6CFC
:10598C00FB681A64FB68002283F83C20012329E0A1
:10599C00FCF7A8FD02467B68D21ABB689A4202D873
:1059AC00BB68002B16D1FB6800221A63FB6820220F
:1059BC0083F83D20FB68002283F83E20FB681B6CBB
:1059CC0043F02002FB681A64FB68002283F83C2039
:1059DC00012307E0FB681B685B6903F04003402B65
:1059EC00B5D1002318461037BD4680BD80B483B0B6
:1059FC0000AF78607B681B685B6903F48063B3F568
:105A0C00806F1BD17B681B686FF480625A617B6866
:105A1C0000221A637B68202283F83D207B680022D9
:105A2C0083F83E207B681B6C43F004027B681A648D
:105A3C007B68002283F83C20012300E000231846F9
:105A4C000C37BD465DF8047B704780B483B000AF63
:105A5C00786039607B6893F83D30DBB2202B29D11C
:105A6C007B68242283F83D207B681B687A68126867
:105A7C00126822F001021A607B681B687A6812684F
:105A8C00526A22F010025A627B681B687A681268AC
:105A9C00516A3A680A435A627B681B687A681268D2
:105AAC00126842F001021A607B68202283F83D20C4
:105ABC00002300E0022318460C37BD465DF8047B3A
:105ACC00704780B485B000AF786039600023FB81EB
